:100000000C9447110C9466110C9466110C946611B3
:100010000C9466110C9466110C9466110C94661184
:100020000C9466110C9466110C9466110C94661174
:100030000C9466110C9466110C9466110C94661164
:100040000C9466110C94C5110C9466110C946611F5
:100050000C9466110C9416120C9466110C94661193
:100060000C9466110C9466110C9466110C94661134
:100070000C9466110C9466110C9466110C94661124
:100080000C9466110C9466110C9466110C94661114
:100090000C9466110C946611000000000000000032
:1000A0000000000000183C3C3C1818001818000024
:1000B0000066666600000000000000000036367F23
:1000C0003636367F36360000083E6B68683E0B0BCE
:1000D0006B3E080870D8DA760C18306E5B1B0E0089
:1000E00000386C6C386CC7C66E3B000000181818DE
:1000F0000000000000000000000C18183030303004
:100100003018180C003018180C0C0C0C0C18183087
:10011000000000361C7F1C360000000000000018A4
:10012000187E181800000000000000000000000009
:100130001818300000000000007E000000000000E1
:100140000000000000000000181800000006060C67
:100150000C18183030606000001C36636B6B6B63EA
:10016000361C0000000C1C3C0C0C0C0C0C3F00005E
:10017000003C6606060C1830607E0000003C666697
:10018000061C0666663C000000060E1E3666667F8C
:1001900006060000007E6060607C0606663C00008B
:1001A000001C3060607C6666663C0000007E060CC9
:1001B0000C18181818180000003C6666663C666645
:1001C000663C0000003C6666663E06060C38000091
:1001D00000000018180000001818000000000018A7
:1001E000180000001818300000060C183060301895
:1001F0000C060000000000007E007E0000000000F1
:10020000006030180C060C1830600000003C666678
:100210000C18180018180000007EC3C3CFDBDBCF1A
:10022000C07F000000183C6666667E666666000059
:10023000007C6666667C6666667C0000003C6660E4
:1002400060606060663C000000786C6666666666AA
:100250006C780000007E6060607C6060607E000002
:10026000007E6060607C606060600000003C6660F2
:1002700060606E66663E000000666666667E666664
:1002800066660000003C181818181818183C000082
:100290000006060606060666663C00000066666CFA
:1002A0006C786C6C66660000006060606060606026
:1002B000607E00000063777F6B6B636363630000A5
:1002C000006363737B6F676363630000003C666673
:1002D00066666666663C0000007C6666667C6060FA
:1002E00060600000003C666666666666663C0C06FA
:1002F000007C6666667C6C6666660000003C666034
:1003000030180C06663C0000007E181818181818E3
:10031000181800000066666666666666663C000041
:1003200000666666666666663C1800000063636386
:10033000636B6B6B3E360000006666663C183C667D
:100340006666000000666666663C181818180000AD
:10035000007E06060C183060607E00003C303030B5
:10036000303030303030303C006060303018180CA5
:100370000C0606003C0C0C0C0C0C0C0C0C0C0C3C75
:10038000183C6600000000000000000000000000B3
:1003900000000000000000FF3030180000000000E6
:1003A000000000000000003C06063E66663E0000BD
:1003B0000060607C66666666667C00000000003C4B
:1003C00066606060663C00000006063E6666666623
:1003D000663E00000000003C66667E60603C0000F7
:1003E000001C303030783030303000000000003EEB
:1003F00066666666663E063C0060607C66666666AB
:10040000666600001818007818181818187E000082
:100410000C0C003C0C0C0C0C0C0C0C780060606696
:10042000666C786C66660000007818181818181842
:10043000187E00000000007E6B6B6B6B6B6300002E
:100440000000007C66666666666600000000003C90
:1004500066666666663C00000000007C666666664E
:10046000667C60600000003E66666666663E060664
:100470000000007C66606060606000000000003E7C
:1004800060603C06067C0000003030783030303050
:10049000301C00000000006666666666663E00006E
:1004A00000000066666666663C1800000000006397
:1004B00063636B6B3E36000000000066663C183CD0
:1004C000666600000000006666666666663E067C3C
:1004D0000000007E060C1830607E00000C18181812
:1004E0001830181818180C001818181818001818B0
:1004F0001818180030181818180C18181818300088
:100500000076DC0000000000000000000000000099
:100510000000000080808000800000A0A00000009B
:100520000000147E28FC50004060804020C0400045
:1005300064A8D62A4C00006090409860000080803B
:10054000000000004080808080804080404040402B
:100550004080005020F82050002020F8202000008B
:10056000000000404080000000E0000000000000AB
:10057000000080002020404080800000609090902B
:1005800060000040C0404040000060902040F0000B
:1005900000609020906000002060A0F0200000E04B
:1005A00080E020C000002040E090600000E020409B
:1005B00040400000609060906000006090702040BB
:1005C00000000080000080000000400040408000EB
:1005D0002040804020000000F000F000000080403B
:1005E0002040800000C0204000400038449AAAB457
:1005F00040300020205070880000E090E090E00043
:100600000060908090600000E0909090E00000E03A
:1006100080E080E00000E080E0808000007080B03A
:10062000907000009090F09090000080808080801A
:1006300000001010109060000090A0C0A09000007A
:1006400080808080E0000088D8A88888000088C862
:10065000A89888000060909090600000E090E08092
:1006600080000060909090601000E090E0A090000A
:100670000060804020C00000E0404040400000900A
:1006800090909060000088505020200000825454C8
:100690002828000088502050880000885020202002
:1006A0000000E0204080E000C08080808080C0802A
:1006B000804040202000C04040404040C0002050CA
:1006C00088000000000000000000F80080400000EA
:1006D0000000000070909070000080E09090E000BA
:1006E000000060808060000010709090700000003A
:1006F00060A0C06000006080C080800000709090AA
:100700007010600080E09090900080008080808079
:100710000040004040404080008090E0A0900000F9
:100720008080808080000000F0A8A8A8000000E081
:10073000909090000000609090600000E09090E049
:100740008080007090907010100000A0C080800029
:10075000000060C020C0000080C080804000000019
:1007600090909070000000A0A04040000000A8A859
:100770005050000000A04040A0000000A0A0408019
:10078000800000E04080E000204040804040208029
:1007900080808080800080404020404080006498BD
:1007A0000000000000000000000000000000000049
:1007B0000000000000000000000000000000000039
:1007C0000000000000000000000000000000000029
:1007D00000000000000000000000300000300000B9
:1007E00030000030000030000030000030000030E9
:1007F0000000300000300000300000000000000069
:100800000030000030000000000000000000000088
:100810006C00006C00006C00006C00000000000028
:1008200000000000000000000000000000000000C8
:1008300000000000000000000000000000000000B8
:1008400000000000000004400004400004400004D8
:1008500040007FF000088000088000088000090048
:1008600000110000FFE00011000012000022000053
:100870002200000000000000000000000200000F45
:10088000C0001A60003220003200003A00001E0052
:100890000007000003C00002E000026000026000E8
:1008A00022600032C0001F80000200000000000033
:1008B0000000781000CC1000CC2000CC4000CC40D0
:1008C00000CC800079000002000002F000059800D2
:1008D00009980011980011980021980040F000003C
:1008E00000000000000000000780000CC0000CC0E9
:1008F000000CC0000CC0000780000E0000333C005C
:1009000063080061880061D00070F0007860003FEB
:10091000F0000F3800000000000000000000600040
:100920000060000060000060000060000000000047
:1009300000000000000000000000000000000000B7
:1009400000000000000000000000000000000000A7
:100950000000000004000008000018000030000043
:1009600030000020000060000060000060000060B7
:100970000000600000600000200000300000300037
:1009800000180000080000040000400000200000E3
:100990003000001800001800000800000C00000CD7
:1009A00000000C00000C00000C00000C000008000F
:1009B0000018000018000030000020000040000077
:1009C0000C00000C00004C80007380001200001E20
:1009D00000003300003300000000000000000000B1
:1009E0000000000000000000000000000000000007
:1009F00000000000000000000000000000000006F1
:100A000000000600000600000600000600007FE06F
:100A1000007FE0000600000600000600000600005F
:100A200006000000000000000000000000000000C0
:100A300000000000000000000000000000000000B6
:100A400000000000000000000000000000000000A6
:100A500000000030000030000010000010000020F6
:100A60000000000000000000000000000000000086
:100A7000000000000000000000007C00007C00007E
:100A80000000000000000000000000000000000066
:100A90000000000000000000000000000000000056
:100AA0000000000000000000000000000000000046
:100AB0000000000000000000000000000000003006
:100AC000000030000000000000000000000000C036
:100AD0000000C000018000018000038000030000CE
:100AE0000300000600000600000C00000C000018C7
:100AF00000001800003800003000003000006000E6
:100B0000006000000F000019800030C0002040008D
:100B100060600060600060600060600060600060B5
:100B2000600060600020400030C0001980000F00AD
:100B3000000000000000000000000200001E000095
:100B40000600000600000600000600000600000681
:100B50000000060000060000060000060000060077
:100B6000000600001F8000000000000000000000E0
:100B70001F800030C00020600000600000600000A6
:100B8000600000C0000180000300000600000800B3
:100B9000001800001000003FE0003FE000000000EF
:100BA0000000000000001F800020C0002060000046
:100BB000600000600000C0000180001F000001C054
:100BC0000000600000600000600020600030C00095
:100BD0001F80000000000000000000000040000036
:100BE000C00001C00002C00004C00008C00010C066
:100BF0000010C00020C0007FF0007FF00000C000A7
:100C000000C00000C00001E0000000000000000083
:100C100000001FC0001FC0001000001000001000E6
:100C2000001000001F000001C00000C000006000B4
:100C300000600000600010E00010C0000F800000A5
:100C400000000000000000000F800018400030404D
:100C5000003000006000006F800070C00060E000A5
:100C6000606000606000606000206000304000183C
:100C7000C0000F00000000000000000000003FE086
:100C8000003FE00000400000C000008000010000C4
:100C90000100000200000600000400000C00000C2F
:100CA000000008000018000018000000000000000C
:100CB000000000000F800018C000306000306000AD
:100CC0003060001CC0000F00001F800031C00060B9
:100CD000E00060600060600060600030C0001F8065
:100CE000000000000000000000000F000031C00004
:100CF00020C00060600060600060600060600030E4
:100D0000600030E0001F600000400000C00000C034
:100D1000002180003E0000000000000000000000F4
:100D20000000000000000000000000003000003063
:100D300000000000000000000000000000000000B3
:100D40000000000000000030000030000000000043
:100D50000000000000000000000000000000000093
:100D60000000300000300000000000000000000023
:100D70000000000000000000000000000030000043
:100D800030000010000010000020000000000000F3
:100D9000000000000000000000100000700001E0F2
:100DA000000780001E00007800001E000007800081
:100DB00001E00000700000100000000000000000D2
:100DC0000000000000000000000000000000000023
:100DD000000000007FF0007FF00000000000000035
:100DE0007FF0007FF0000000000000000000000025
:100DF00000000000000000000000000000000000F3
:100E0000000000004000007000003C00000F0000E7
:100E100003C00000F00003E0000F80003E000070FF
:100E200000004000000000000000000000003E0044
:100E30000063000041800001800001800003000089
:100E40000200000C0000080000180000180000005C
:100E50000000000000180000180000000000000062
:100E60000000000001F8000606000C030010F90065
:100E70003198802318804218804630804630804662
:100E8000710046B200233C0020000018200007C07B
:100E9000000000000000000000000300000300004C
:100EA00003800005800005800008C00008C0001015
:100EB000E0001060001060003FF00020300040189B
:100EC00000401800E03C00000000000000000000AE
:100ED0007F000031C00030C00030C00030C00030A2
:100EE00080003180003E000031C00030C000306022
:100EF0000030600030600030C0007F8000000000E3
:100F000000000000000007F0001C18003808003046
:100F100000007000006000006000006000006000E1
:100F2000006000007000003000001800000C080095
:100F300007F0000000000000000000007FC000304B
:100F40007000303800301800300C00300C00300CCD
:100F500000300C00300C00300C00301C0030180049
:100F60003038003070007FC000000000000000003A
:100F700000007FC000304000300000300000300032
:100F8000003000003100003F000031000030000060
:100F90003000003000003040003040007FC00000D2
:100FA00000000000000000007FC000304000300062
:100FB000003000003000003000003080003F800032
:100FC0003080003000003000003000003000003081
:100FD000000078000000000000000000000007F0A2
:100FE000001C18003808003000007000006000008D
:100FF000600000600000607C006018007018003025
:1010000018001818000C180007F00000000000007D
:1010100000000000783C0030180030180030180044
:101020003018003018003018003FF8003018003039
:101030001800301800301800301800301800783CC4
:1010400000000000000000000000780000300000F8
:101050003000003000003000003000003000003070
:101060000000300000300000300000300000300090
:1010700000300000780000000000000000000000C8
:101080003E00000C00000C00000C00000C00000CE6
:1010900000000C00000C00000C00000C00000C0014
:1010A000000C00000C00000C00000C00008C000084
:1010B000980000F0000078F00030400030800030F0
:1010C00080003100003200003400003C0000360097
:1010D0000033000031800030C0003060003030004C
:1010E00078F80000000000000000000078000030E8
:1010F0000000300000300000300000300000300000
:1011000000300000300000300000300000300000EF
:101110003040003040007FC00000000000000000B0
:101120000000700700300600380E00380E003C1634
:10113000002C16002C36002626002626002346000A
:10114000234600238600218600218600700F0000C0
:101150000000000000000000701C0030080038088B
:10116000002C08002E080026080023080021880013
:1011700021880020C8002068002078002038002046
:10118000180070080000000000000000000007C008
:10119000001C7000301800301800600C00600C005B
:1011A000600C00600C00600C00600C00600C0030F3
:1011B00018003018001C700007C00000000000007C
:1011C000000000007F800030C00030600030600010
:1011D00030600030600030C00031C0003F0000309F
:1011E00000003000003000003000003000007800C7
:1011F0000000000000000000000007C0001C70009C
:10120000301800301800600C00600C00600C0060AA
:101210000C00600C00600C00600C003018003018EE
:10122000001C700007C000003000001F0000070015
:101230007F800030C00030600030600030600030DF
:10124000600031C0003F000033000031800031C039
:101250000030C000306000307000783800000000BE
:101260000000000000001F800030C00060400060EF
:1012700000006000007000003C00000F00000380D0
:101280000001C00000C00000C00040C0006180003C
:101290003F00000000000000000000007FF8004355
:1012A00008004308000300000300000300000300DF
:1012B000000300000300000300000300000300001F
:1012C0000300000300000780000000000000000091
:1012D000000078380030100030100030100030105E
:1012E00000301000301000301000301000301000BE
:1012F0003010003010001820001C60000FC00000EB
:101300000000000000000000781C003008003008D9
:10131000001810001810001810000C20000C2000FD
:1013200006400006400006400003800003800003E2
:101330008000010000000000000000000000786153
:10134000C030608030608030E08038B10018B1007B
:10135000193100193900191A000D1A000E1A000E61
:101360000E000E0C00040C0004040000000000003D
:1013700000000000F870006020003040003880005D
:101380001880000D00000E00000600000700000B92
:10139000000011800011C00020C000406000E1F09A
:1013A00000000000000000000000F070006020005D
:1013B0003040003840001880001C80000D000006FE
:1013C00000000600000600000600000600000600FF
:1013D000000600000F0000000000000000000000F8
:1013E0007FE00040E00000C00001C0000180000379
:1013F00000000300000600000E00000C00001800B2
:10140000001800003000007020007FE000000000A5
:101410000000000000003C00003000003000003000
:1014200000003000003000003000003000003000CC
:1014300000300000300000300000300000300000BC
:101440003000003000003000003C00006000006010
:1014500000003000003000003800001800001800C4
:10146000000C00000C000006000006000003000055
:1014700003000003800001800001800000C0000024
:10148000C0007800001800001800001800001800C4
:1014900000180000180000180000180000180000D4
:1014A00018000018000018000018000018000018AC
:1014B000000018000078000003000003000007800F
:1014C000000780000CC0000CC0001860001860000D
:1014D000303000303000000000000000000000004C
:1014E00000000000000000000000000000000000FC
:1014F00000000000000000000000000000000000EC
:1015000000000000000000000000000000000000DB
:1015100000000000000000000000007F80000000CC
:101520000000000006000003000001800000000031
:1015300000000000000000000000000000000000AB
:10154000000000000000000000000000000000009B
:10155000000000000000000000000000000000008B
:101560000000000000001F00002380002180000117
:1015700080000180001F8000318000618000618058
:10158000007380003CE0000000000000000000004C
:1015900070000030000030000030000037C000381C
:1015A00060003030003030003030003030003030FB
:1015B00000303000306000386000378000000000EC
:1015C000000000000000000000000000000000001B
:1015D00000000F00003880003080006000006000D4
:1015E00000600000600000600000300000388000F3
:1015F0000F000000000000000000000000E00000FC
:1016000060000060000060000F600030E0003060AB
:10161000006060006060006060006060006060000A
:1016200060600030E0001F7000000000000000005B
:1016300000000000000000000000000000000F009B
:101640000031800020C00060C0007FC0006000004A
:101650006000006000003000001840000F800000B3
:1016600000000000000000000F000019000018003A
:10167000001800007F00001800001800001800008B
:1016800018000018000018000018000018000018CA
:1016900000003C000000000000000000000000000E
:1016A000000000000000000000000FF000198000A2
:1016B00030C00030C00030C0001980000F000010A2
:1016C00000003000003FC0001FE00020600060C04C
:1016D000003F80007000003000003000003000004B
:1016E00037C000386000306000306000306000308B
:1016F000600030600030600030600030600078F0E2
:101700000000000000000000000030000030000079
:1017100000000000000070000030000030000030C9
:1017200000003000003000003000003000003000C9
:101730000030000078000000000000000000000001
:101740001800001800000000000000003800001819
:101750000000180000180000180000180000180011
:101760000018000018000018000018000018000001
:10177000100000E000007000003000003000003079
:10178000000030E000308000310000320000340002
:10179000003E000036000033000031800030C00001
:1017A00078700000000000000000000070000030B1
:1017B0000000300000300000300000300000300039
:1017C0000030000030000030000030000030000029
:1017D0003000003000007800000000000000000031
:1017E000000000000000000000000000000077CFB3
:1017F000803870C03060C03060C03060C03060C0C1
:101800003060C03060C03060C03060C078F1E0004F
:1018100000000000000000000000000000000000C8
:101820000000000077C000386000306000306000C9
:1018300030600030600030600030600030600030A8
:10184000600078F0000000000000000000000000D0
:10185000000000000000000000000F000039C00080
:1018600030C0006060006060006060006060006028
:10187000600030C00039C0000F0000000000000010
:101880000000000000000000000000000000000058
:1018900077C0003860003030003030003030003029
:1018A0003000303000306000386000378000300099
:1018B0000030000030000078000000000000000050
:1018C0000000000000000F600030E00030600060A9
:1018D000600060600060600060600060600030E098
:1018E000001F600000600000600000600000F00069
:1018F000000000000000000000000000730000373E
:1019000000003900003000003000003000003000DE
:1019100000300000300000300000780000000000BF
:1019200000000000000000000000000000000000B7
:1019300000000F00003080003080003000001C00EC
:10194000000F000003C00000C00020C00031800074
:101950001F00000000000000000000000000000068
:1019600000003000003000007E0000300000300039
:101970000030000030000030000030000030000077
:101980003000003000001E000000000000000000D9
:10199000000000000000000000000000000070E0F7
:1019A0000030600030600030600030600030600067
:1019B00030600030600030600030E0001F700000D8
:1019C0000000000000000000000000000000000017
:1019D0000000000078700030200030200018400027
:1019E0001840001C80000C80000D0000070000065D
:1019F00000000200000000000000000000000000E5
:101A00000000000000000000000078C70030C200A5
:101A100030C2003162003962001B74001A34001AAF
:101A200034000C18000C18000C1800000000000016
:101A300000000000000000000000000000000000A6
:101A400078E0003040001880001D00000E00000605
:101A500000000700000B800011800020C00071E032
:101A60000000000000000000000000000000000076
:101A700000000000000078700030200030200018C6
:101A800040001840001C80000C80000D0000070082
:101A9000000600000200000400000C000018000016
:101AA0000000000000000000000000003FE00020F7
:101AB000E00000C0000180000300000700000600F5
:101AC000000C00001800003820003FE0000000007B
:101AD0000000000000000C0000100000300000308A
:101AE0000000300000300000300000200000400006
:101AF0000020000030000030000030000030000006
:101B00003000001000000C00000000003000003029
:101B100000003000003000003000003000003000D5
:101B200000300000300000300000300000300000C5
:101B30003000003000003000003000003000003085
:101B400000006000001000001800001800001800DD
:101B50000018000018000008000004000008000041
:101B600018000018000018000018000018000010ED
:101B70000000600000000000000000000000000005
:101B8000000000000000000000000000003E100007
:101B90007FF00003E00000000000000000000000F3
:101BA0000000000000000000000000000000001F16
:101BB000C000007FF00000F0780001E03C0003E08E
:101BC0003E0007E03F0007C01F000FC01F800FC08E
:101BD0001F800FC01F801FC01FC01FC01FC01FC09D
:101BE0001FC01FC01FC03FC01FE03FC01FE03FC05D
:101BF0001FE03FC01FE03FC01FE03FC01FE03FC0ED
:101C00001FE03FC01FE03FC01FE03FC01FE03FC0DC
:101C10001FE03FC01FE01FC01FC01FC01FC01FC06C
:101C20001FC01FC01FC00FC01F800FC01F800FC06C
:101C30001F8007C01F0007E01F0003E03E0001E017
:101C40003C0000F07800007FF000001FC0000000A2
:101C500060000001E0000007E000003FE00000FF3E
:101C6000E00003FFE000063FE000001FE000001F6F
:101C7000E000001FE000001FE000001FE000001F68
:101C8000E000001FE000001FE000001FE000001F58
:101C9000E000001FE000001FE000001FE000001F48
:101CA000E000001FE000001FE000001FE000001F38
:101CB000E000001FE000001FE000001FE000001F28
:101CC000E000001FE000001FE000001FE000001F18
:101CD000E000001FE000001FE000001FE000001F08
:101CE000E000003FF000007FF80007FFFF80003FAA
:101CF000800000FFE00001FFF00007FFFC0007FF8D
:101D0000FC000FFFFE001FFFFE001E0FFF00380348
:101D1000FF003001FF002001FF000000FF00000075
:101D2000FF000000FE000000FE000000FE000000BA
:101D3000FC000000FC000001F8000001F8000001B8
:101D4000F0000003E0000003C0000007C00000072F
:101D50008000000F0000001E0000001C0000003882
:101D60000040007000C000E000C000C0038001FF20
:101D7000FF8003FFFF8007FFFF800FFFFF801FFF33
:101D8000FF001FFFFF003FFFFF007FFFFF00001F5E
:101D9000C00000FFF00001FFFC0007FFFE000E077F
:101DA000FE000C03FF001001FF003000FF000000E8
:101DB000FF000000FE000000FE000000FC0000012B
:101DC000F0000001C0000003E000000FF800003F39
:101DD000FC0000FFFE00003FFF00000FFF80000737
:101DE000FF800003FFC00001FFC00000FFC0000033
:101DF0007FC000007FC000007FC000003FC0000027
:101E00003FC000003F8000003F803C003F003E009C
:101E10003F007F007E007F80FC007FE1FC007FFFB1
:101E2000F0003FFFE0001FFF800007FC0000000003
:101E30001E0000003E0000003E0000007E0000008A
:101E4000FE000000FE000001FE000003FE00000393
:101E5000FE000007FE00000DFE000019FE00001944
:101E6000FE000031FE000061FE000061FE0000C1C6
:101E7000FE000181FE000181FE000301FE0006015B
:101E8000FE000C01FE000C01FE001801FE003001F6
:101E9000FE003FFFFFE03FFFFFE03FFFFFE03FFFAF
:101EA000FFE03FFFFFE03FFFFFE00001FE00000119
:101EB000FE000001FE000001FE000001FE00000126
:101EC000FE000001FE000001FE000001FE00007F98
:101ED000FFE0007FFFE000FFFFC000FFFFC000FF4A
:101EE000FFC001FFFF8001FFFF8001FFFF8003FFB4
:101EF000FF0003000000070000000600000007F0DC
:101F000000000FFF00000FFFE0000FFFF0001FFFB9
:101F1000FC001FFFFE001FFFFF003FFFFF80003F90
:101F2000FF800007FFC00000FFC000007FE000004E
:101F30003FE000001FE000000FE0000007E00000AD
:101F400007E0000003E0000003C0000003C01E0023
:101F500003C01F8003803FC003003FE007003FF83D
:101F60000E001FFC18000FFFE00001FF0000000042
:101F700003E000003F800000FE000003F000000FBF
:101F8000E000001FC000003F0000007F000000FED6
:101F9000000001FC000003FC000003F8000007F84B
:101FA000000007F000000FF000000FF000001FE736
:101FB000F0001FFFFC001FF0FF003FE07F803FE0CC
:101FC0007F803FC03FC03FC03FC03FC03FE03FC0F9
:101FD0001FE03FC01FE03FC01FE03FC01FE03FC009
:101FE0001FE01FC01FE01FE01FE01FE01FC00FE049
:101FF0001FC00FE01FC007F01F8003F03F0003F871
:102000003E0000FC7C00007FF800001FC00007FFBE
:10201000FFF007FFFFF00FFFFFE00FFFFFE00FFFF4
:10202000FFE00FFFFFC00FFFFFC01FFFFFC01FFF3C
:10203000FF801F0007801800078030000F0020007D
:102040000F0000001F0000001E0000001E00000026
:102050003E0000003C0000003C0000007800000052
:102060007800000078000000F0000000F0000000A0
:10207000F0000001E0000001E0000001E0000003CA
:10208000C0000003C0000003C0000007800000077C
:10209000800000078000000F0000000F0000000F0C
:1020A0000000001E0000001E0000001E0000001FB7
:1020B000E00000FFFC0001F87E0003F01F0007F0C5
:1020C0001F800FE00F800FE00FC01FE00FC01FE068
:1020D0000FC01FF00FC01FF00FC01FF80FC01FF878
:1020E0001F800FFC1F800FFF1F0007FFBE0007FFB0
:1020F000FC0001FFF00000FFF800007FFE00003F41
:10210000FF00007FFF0001F7FF8007C1FFC00FC085
:10211000FFC01F807FE01F807FE03F003FE03F0067
:102120003FE03F001FE03F001FE03F001FE03F0097
:102130001FC01F001FC01F801F800F803F800FC067
:102140007F0003E0FE0001FFF800003FC000001F19
:10215000800000FFF00001F1F80003E0FC0007E060
:102160007E000FC07F001FC03F801FC03F801FC088
:102170003FC03FC03FC03FC01FC03FC01FE03FC087
:102180001FE03FC01FE03FC01FE03FC01FE03FE037
:102190001FE01FE01FE01FE01FE00FF01FE007F04F
:1021A0001FE003FC3FC001FFFFC0007FBFC0000075
:1021B0003F8000003F8000003F8000007F00000063
:1021C0007F000000FE000000FC000001F80000039A
:1021D000F0000007E000000FC000001F8000007E3C
:1021E000000001F800000FE000003E0000000000C9
:1021F00000000000000000000000000000000000DF
:1022000000000000000001F0000003F8000007FCDF
:10221000000007FC000007FC000007FC000007FCB2
:10222000000003F8000001F00000000000000000C2
:10223000000000000000000000000000000000009E
:10224000000000000000000000000000000000008E
:10225000000001F0000003F8000007FC000007FC8C
:10226000000007FC000007FC000007FC000003F86A
:10227000000001F00000000000000000000000006D
:102280000000000000000000000000000000112419
:102290001FBECFEFD0E2DEBFCDBF11E0A0E0B1E0C6
:1022A000EEECF6E300E00BBF02C007900D92AC36F7
:1022B000B107D9F722E0ACE6B1E001C01D92A73624
:1022C000B207E1F70E94A1190C94651B0C94000061
:1022D000EF92FF920F931F93CF93DF9300D0CDB770
:1022E000DEB7F82EE92E162F072F49835A830E9456
:1022F000DE1560E070E081E594E00E942A1824E099
:1023000031E03F932F930E948E1860E270E088E2E4
:1023100090E00E9431185A815F9349814F930F9347
:102320001F93EF92FF928AE091E09F938F930E9418
:102330008E1868E170E082E190E00E94311880918F
:102340006D011F928F9384E191E09F938F930E9480
:102350008E1883E291E09F938F9380916C011F927E
:102360008F9385E291E09F938F930E948E180FB612
:10237000F894DEBF0FBECDBF0F900F90DF91CF91CD
:102380001F910F91FF90EF9008951F920F920FB63B
:102390000F9211240BB60F922F933F934F935F939D
:1023A0006F937F938F939F93AF93BF93EF93FF931D
:1023B00080916E018F5F8C3319F080936E0107C09E
:1023C00010926E01809102018F5F809302018091D3
:1023D00002018C3339F410920201809103018F5F66
:1023E0008093030180910301883110F01092030162
:1023F00040916E0150E06091020170E08091030114
:1024000090E00E946811FF91EF91BF91AF919F9171
:102410008F917F916F915F914F913F912F910F908D
:102420000BBE0F900FBE0F901F9018951F920F922A
:102430000FB60F9211248F939F938CB184FF02C02B
:1024400093E001C090E085FF02C081E09827809171
:102450006F01891B80FF09C090936F0190918201E9
:1024600091508270890F809382019F918F910F907C
:102470000FBE0F901F901895E1E6F0E080E8808392
:1024800010828CE08093810081E19AE7909389002B
:102490008093880082E080936F00279A2F98549A47
:1024A000559A569A6C986D989EB190639EB984BD6A
:1024B00093E095BD9DE397BD80936E007894089559
:1024C000F8948091820190918201917090938201A1
:1024D000789485950895CB016AE070E00E940E1A09
:1024E00080E090E050E0681779077CF021E030E070
:1024F0004F9902C020E030E02417350749F42AE163
:102500002A95F1F700C00196EECF8FEF9FEF089567
:1025100080E090E00895FC0140E050E080E0A7E01A
:10252000B0E02191BD01641B750B01C0220F6A95BB
:10253000EAF7820F4F5F5F4F4830510591F70895DA
:10254000EF92FF920F931F93CF93DF938C01EB01D8
:1025500088E2FB0111928A95E9F75F9AF0E5FA9516
:10256000F1F7579A5F988FE39CE90197F1F700C064
:1025700000005F9A90E59A95F1F75F98579840E0D0
:1025800060E570E0C8010E946B12892B89F087E436
:1025900091E09F938F938CE591E09F938F930E949E
:1025A0008E180F900F900F900F9084E690E057C018
:1025B00041E060E570E0C8010E946B12892B89F050
:1025C00087E491E09F938F938CE591E09F938F93A5
:1025D0000E948E180F900F900F900F9085E690E05C
:1025E0003EC07E01E8E2EE0EF11C40E062E370E0E6
:1025F000C8010E946B12892B89F080E691E09F93BD
:102600008F938CE591E09F938F930E948E180F908B
:102610000F900F900F9086E690E021C080E090E050
:102620004F9B0BC0FAE1FA95F1F700C00196883094
:102630009105B1F787E690E012C021E004970CF411
:1026400020E02993CE15DF0581F640E062E370E0DB
:10265000C8010E946B12009711F088E690E0DF91AC
:10266000CF911F910F91FF90EF900895AF92BF927D
:10267000CF92DF92EF92FF920F931F93CF93DF934E
:102680008C016B017A010E948B12B82EC80108964A
:102690000E948B12C82FC80140960E948B12A82E50
:1026A000C80148960E948B12D82FC80180960E94BC
:1026B0008B12CB0DCA0DCD0F8C1307C0F601A08273
:1026C000F701B08280E090E002C089E690E0DF91FF
:1026D000CF911F910F91FF90EF90DF90CF90BF901F
:1026E000AF9008958F929F92AF92BF92CF92DF9258
:1026F000EF92FF920F931F93CF93DF934C018C01C6
:10270000C0E0D0E080E1E82E81E0F82E98E0C92E0C
:1027100091E0D92E21E3A22E21E0B22EF801819181
:102720008F011F928F93FF92EF920E948E180F904D
:102730000F900F900F90209789F0C8018819990980
:1027400083709927892B51F4DF92CF92BF92AF9279
:102750000E948E180F900F900F900F902196C83204
:10276000D105E1F682E291E09F938F938CE591E0B1
:102770009F938F930E948E180F900F900F900F9041
:10278000DF91CF911F910F91FF90EF90DF90CF904D
:10279000BF90AF909F908F900895AF92BF92CF92CD
:1027A000DF92EF92FF920F931F93CF93DF93CDB7FA
:1027B000DEB7AA970FB6F894DEBF0FBECDBF6B0190
:1027C0007A0159018E010F5F1F4F28E2F801119223
:1027D0002A95E9F7B8010E94A012009721F51AA6E0
:1027E00019A6AE01475D5F4FBE01665D7F4FC80110
:1027F0000E9436130097B9F4A114B10439F088E2AD
:10280000F801D50101900D928A95E1F7C114D10428
:1028100019F08AA5F6018083E114F10431F089A54D
:10282000F701808302C0282F02C020E090E0822FB1
:10283000AA960FB6F894DEBF0FBECDBFDF91CF9141
:102840001F910F91FF90EF90DF90CF90BF90AF90CE
:10285000089593E89093B00091E09093B100809335
:10286000B300089590935A028093590226E330E012
:1028700020930040009779F480EF90E09093560207
:102880008093550280E491E0909358028093570220
:1028900088E490E034C08130910579F480E491E0DF
:1028A000909356028093550280EF90E090935802E7
:1028B0008093570288EE90E022C08230910579F42F
:1028C00080EF90E0909356028093550280E491E06F
:1028D000909358028093570288E890E010C00397C5
:1028E00081F480E491E0909356028093550280EF4A
:1028F00090E0909358028093570288E290E0809392
:1029000000418AE290E08093004020E030E0309384
:102910000041209300418091550290915602019709
:1029200090930041809300418BE290E080930040BF
:1029300030930041209300418091570290915802BA
:10294000019790930041809300410895CF9387377A
:1029500048F4883048F08D3350F48F3150F4803192
:1029600020F009C086E703C088E0C3E005C0C0E0EE
:1029700003C0C1E001C0C2E021EB30E02093004081
:10298000C0930041682F70E080E090E00E94D91A67
:102990009B01AC0160E070E080EF94E40E94361A85
:1029A0000E94A81A70E002C075956795CA95E2F773
:1029B00060930041CF9108950F931F93CF93DF93BE
:1029C000CDB7DEB728970FB6F894DEBF0FBECDBFE8
:1029D00029833A834B835C836D837E838F839887BF
:1029E00069817A812B813C814D815E818F819885BF
:1029F000EAE2F0E0E0930040709300416093004110
:102A00003093004120930041EBE2F0E0E09300407E
:102A100050930041409300419093004180930041C6
:102A2000ECE2F0E0E09300402F5F3F4F261B370BB6
:102A30000196841B950B2817390790F4482F47708F
:102A4000429FB001439F700D112453E096958795E6
:102A50005A95E1F7829FA001839F500D112411C068
:102A6000422F4770489FB001499F700D112443E0E9
:102A7000369527954A95E1F7289FA001299F500D8B
:102A80001124862F8770815028F010930041009305
:102A90000041F9CFCB0123E0969587952A95E1F780
:102AA000840F951F019708F1109300410093004196
:102AB00010930041009300411093004100930041A6
:102AC0001093004100930041109300410093004196
:102AD0001093004100930041109300410093004186
:102AE0001093004100930041DDCF28960FB6F89473
:102AF000DEBF0FBECDBFDF91CF911F910F91089523
:102B0000EF92FF920F931F93CF93DF93CDB7DEB772
:102B100028970FB6F894DEBF0FBECDBF29833A8346
:102B20004B835C836D837E838F83988789819A81B1
:102B3000EB80FC806D817E81AF81B8852AE230E038
:102B4000209300409093004180930041F092004117
:102B5000E09200412BE230E020930040709300416E
:102B600060930041B0930041A09300412CE230E01B
:102B700020930040E816F906A0F0A8019B018A0105
:102B8000A217B30760F04E5F5F4FF801008111811B
:102B900010930041009300412F5F3F4FF0CF01960B
:102BA000E9CF28960FB6F894DEBF0FBECDBFDF91F8
:102BB000CF911F910F91FF90EF9008950F931F9366
:102BC000CF93DF93CDB7DEB728970FB6F894DEBF6B
:102BD0000FBECDBFE5E5F2E017821682138612869E
:102BE0001A821982808191810197482F9C838B835F
:102BF0001E821D8282819381019798878F8306852B
:102C0000178520E03A815C8160E07E8198850E9492
:102C1000DC1428960FB6F894DEBF0FBECDBFDF914F
:102C2000CF911F910F91089586E08093750080E801
:102C3000809374003F9A249A8FEC97E00197F1F704
:102C400000C0000047988FE39CE90197F1F700C0AE
:102C50000000479A9FEF2DEE82E091502040804087
:102C6000E1F700C0000088E290E08093004081E13D
:102C700090E0809300409FEF26E781E09150204054
:102C80008040E1F700C0000021E030E08BEC90E0F4
:102C9000809300402093004180EC90E080930040BE
:102CA00088E096E2909300418093004120E130E07B
:102CB00081EC90E0809300402093004185EC90E00F
:102CC000809300408EE395E3909300418093004110
:102CD00025EB30E087EC90E08093004020930041AA
:102CE00021E030E086EF90E08093004020930041A7
:102CF00080E090E0909300418093004125E530E032
:102D00008AE390E0809300402093004181E090E0CE
:102D10000E9432140E94DE15E5E5F2E01782168269
:102D200013861286178616868FEF9FEF9587848706
:102D300087E0808B88E0818B89E290E0809300407F
:102D40009FE728E381E0915020408040E1F700C0F8
:102D5000000020E030E085E390E080930040209385
:102D60000041EAE6F0E08081806280832C9A089539
:102D70006F927F928F929F92AF92BF92CF92DF928B
:102D8000EF92FF920F931F93CF93DF9320916502F1
:102D900030E04091660250E02730310539F4483088
:102DA000510509F02EC1ECE0F5E01EC02C303105D4
:102DB00039F44830510509F024C1E8E9F0E014C0C5
:102DC0002231310539F44831510509F01AC1E4EADC
:102DD000F7E00AC02832310509F013C1403251052D
:102DE00009F00FC1EEEAFBE1A0905B02B0905C023B
:102DF00060915F0270916002D901A60FB71F8A30FF
:102E000001F510925C0210925B02B0936002A093F5
:102E10005F028091570290915802A817B90708F4F1
:102E2000F0C0DF91CF911F910F91FF90EF90DF9055
:102E3000CF90BF90AF909F908F907F906F900C94A9
:102E4000DE1590EE980F9F3508F0DBC0082E000CC1
:102E5000990BEA0113E0D695C7951A95E1F7283248
:102E6000310549F0C29F7001C39FF00CD29FF00C56
:102E70001124809707C018E21C9F70011D9FF00C61
:102E80001124C097E89E8001E99E100DF89E100D58
:102E900011240E0F1F1F8BE290E08093004070936F
:102EA000004160930041B0930041A0930041F5EBD5
:102EB000CF2EF1E0DF2EE12CF12CE216F306C0F468
:102EC00080E090E08C179D0751F0F801E80FF91FA2
:102ED0009490F601E80FF91F90820196F3CF0C0F42
:102EE0001D1F8FEFE81AF80A84E0C80ED11CE5CF49
:102EF000C501C0E0D0E04A018A0C9B1C0AE2A02E6A
:102F0000B12CECE2CE2ED12C772473948815990540
:102F1000D0F5A0920040909300418093004190939F
:102F2000004180930041C0920040FE01E095F09581
:102F3000E770FF27672C01C0660CEA95EAF7FE01EF
:102F400013E0F695E7951A95E1F7EB54FE4F00E094
:102F500010E002171307A0F4F080F62029F0E090AB
:102F60006102F090620204C0E0906302F09064029B
:102F7000F0920041E09200410F5F1F4F3496E9CF7D
:102F800001962196C3CFEAE2F0E0E09300409093EF
:102F900000418093004190930041809300418CE276
:102FA00090E080930040A617B70758F08091630225
:102FB0009091640290930041809300416F5F7F4F36
:102FC000F2CF80915B0290915C02480F591F5093A1
:102FD0005C0240935B028091550290915602481723
:102FE000590778F010925C0210925B0280915F02A8
:102FF000909160020196280F391F30936002209350
:103000005F02DF91CF911F910F91FF90EF90DF90C2
:10301000CF90BF90AF909F908F907F906F900895CA
:103020000F931F93CF938C01C0E0F801EC0FF11DBB
:103030008081882321F00E94B816CF5FF6CFCF9110
:103040001F910F910895E5E5F2E0978386837387DA
:1030500062870895E5E5F2E095878487778766873C
:103060000895E5E5F2E0808B618B08950F931F933F
:10307000CF938C0170935C0260935B02509360026B
:1030800040935F02C0E0F801EC0FF11D80818823BE
:1030900021F00E94B816CF5FF6CFCF911F910F910C
:1030A0000895E0918001F09181019F012F5F3F4FD2
:1030B0003093810120938001808308958A3034F019
:1030C00090917101911104C097E503C090E301C094
:1030D00097E3890F0E94511881E080937001089551
:1030E000AC01209172013091730180E02417350703
:1030F00020F0241B350B8F5FF9CF309373012093A1
:10310000720190917001911101C081110C945E18AF
:103110000895082E000C990B0C94B8168F929F926C
:10312000AF92BF92CF92DF92EF92FF920F931F93D5
:10313000CF93DF9300D0CDB7DEB7FE017196C1907B
:10314000D1908F0184E7A82E81E0B82EF60180810E
:10315000882309F4E7C0853249F02FEFC21AD20A5A
:10316000082E000C990B0E94B816F0CFF601818151
:10317000803329F0F2E0CF0ED11CE12C08C0F6011B
:10318000828196012D5F3F4F6901EE24E39490ED1B
:10319000980F9A3078F4F601F12C6F0190ED980FAA
:1031A0009A3048F48F2D880F880FF80EFF0CF90E17
:1031B0008191F3CFF12CB0928101A0928001109205
:1031C0007001833609F461C04CF4853209F46CC097
:1031D0008835C1F1882309F4A5C069C0833709F493
:1031E0005DC01CF4843631F062C0853719F0883731
:1031F00049F15DC0480132E0830E911CF801208145
:1032000031813093730120937201843661F437FF6A
:103210000AC03195219531093093730120937201D1
:103220008DE20E94511880E197E20E94701888EEAA
:1032300093E00E94701884E690E00E9470188AE083
:1032400090E01BC091E0883509F090E09093710107
:103250004801F2E08F0E911CF801808191819093DA
:1032600073018093720180E090E10E94701880E009
:1032700091E00E94701880E190E00E9470188091A7
:1032800072010E945E18840112C04801F2E08F0EA4
:10329000911CF80180810E945118F5CFF80120811E
:1032A00031810E5F1F4F05C085E20E94511824E74F
:1032B00031E0E0918001F091810110823093810131
:1032C00020938001C9010196FC0131974081411191
:1032D0000DC09093810180938001EE2011F080E376
:1032E00001C080E2882E880F990804C01F148CF753
:1032F000FA94E9CF1F144CF4C40129833A830E9445
:10330000B816FA943A812981F5CF7901F7018191B4
:103310007F01882309F41ACF082E000C990B0E9414
:10332000B816F4CF0F900F90DF91CF911F910F91AE
:10333000FF90EF90DF90CF90BF90AF909F908F90D5
:1033400008950E943C120E9414162FEF89E698E11E
:10335000215080409040E1F700C00000DFE704E327
:1033600011E081E3E82E81E0F82ECD2F8FE097E287
:103370000197F1F700C000000E946012082E000CB7
:10338000990B8C0F911D8F3F910509F02CF4823021
:10339000910524F0C82F03C0CFEF01C0C2E0D15087
:1033A00029F71F9A23E831E04CE651E06DE671E021
:1033B00080910001909101010E94CD13892B51F061
:1033C0001F930F93FF92EF920E948E180F900F9011
:1033D0000F900F9080916D019AEF980F90936D016F
:1033E000973118F45D9A5C9805C08D51833020F4B4
:1033F0005C9A5D985E9807C09A3110F05E9A01C0A1
:103400005E985C985D989FEF29E688E19150204096
:103410008040E1F700C00000DC2FA7CF97FB072E0C
:1034200016F4009407D077FD09D00E94221A07FCF9
:1034300005D03EF4909581959F4F089570956195C4
:103440007F4F0895AA1BBB1B51E107C0AA1FBB1FDA
:10345000A617B70710F0A61BB70B881F991F5A9520
:10346000A9F780959095BC01CD0108950E944A1A54
:103470000C942B1B0E94241B58F00E941D1B40F033
:1034800029F45F3F29F00C94141B51110C945F1B1D
:103490000C941A1B0E943C1B68F39923B1F355232B
:1034A00091F3951B550BBB27AA2762177307840757
:1034B00038F09F5F5F4F220F331F441FAA1FA9F3ED
:1034C00035D00E2E3AF0E0E832D091505040E695DB
:1034D000001CCAF72BD0FE2F29D0660F771F881F3C
:1034E000BB1F261737074807AB07B0E809F0BB0B2F
:1034F000802DBF01FF2793585F4F3AF09E3F510543
:1035000078F00C94141B0C945F1B5F3FE4F3983E1F
:10351000D4F3869577956795B795F7959F5FC9F72B
:10352000880F911D9695879597F90895E1E0660FAC
:10353000771F881FBB1F621773078407BA0720F025
:10354000621B730B840BBA0BEE1F88F7E09508958E
:103550000E94441B88F09F5798F0B92F9927B751C4
:10356000B0F0E1F0660F771F881F991F1AF0BA9527
:10357000C9F714C0B13091F00E945E1BB1E008950C
:103580000C945E1B672F782F8827B85F39F0B93FFE
:10359000CCF3869577956795B395D9F73EF49095DA
:1035A0008095709561957F4F8F4F9F4F0895E89458
:1035B00009C097FB3EF490958095709561957F4F7B
:1035C0008F4F9F4F9923A9F0F92F96E9BB27939529
:1035D000F695879577956795B795F111F8CFFAF439
:1035E000BB0F11F460FF1BC06F5F7F4F8F4F9F4F6A
:1035F00016C0882311F096E911C0772321F09EE8C8
:10360000872F762F05C0662371F096E8862F70E02D
:1036100060E02AF09A95660F771F881FDAF7880F07
:103620009695879597F9089597F99F6780E870E0D8
:1036300060E008959FEF80EC089500240A94161628
:10364000170618060906089500240A941216130690
:10365000140605060895092E0394000C11F488231E
:1036600052F0BB0F40F4BF2B11F460FF04C06F5F3A
:103670007F4F8F4F9F4F089557FD9058440F551F10
:1036800059F05F3F71F04795880F97FB991F61F0E4
:103690009F3F79F087950895121613061406551F5B
:1036A000F2CF4695F1DF08C0161617061806991FC7
:1036B000F1CF86957105610508940895E894BB27BC
:0E36C00066277727CB0197F90895F894FFCF7E
:1036CE0007002B150A0A0A20200025643A25643AC1
:1036DE0025640A000A0A20202054656D703A25647C
:1036EE00430A0025000A20202048756D69643A259A
:1036FE00642573005265616420444854313120665C
:10370E0061696C65642E0069657369652061696322
:10371E0069207072696D756C2069660025730A00E8
:0C372E00696573696520616963690000CA
:00000001FF
